:100000000C9462000C948A000C948A000C948A0070
:100010000C948A000C948A000C948A000C948A0038
:100020000C948A000C948A000C948A000C948A0028
:100030000C948A000C948A000C948A000C948A0018
:100040000C9440030C948A000C94B0030C948A0323
:100050000C948A000C948A000C948A000C948A00F8
:100060000C948A000C948A000000000023002600F3
:10007000290000000000240027002A0000000000E2
:10008000250028002B0004040404040404040202D4
:100090000202020203030303030301020408102007
:1000A0004080010204081020010204081020000012
:1000B0000008000201000003040700000000000027
:1000C0000000F90611241FBECFEFD8E0DEBFCDBF80
:1000D00022E0ACE9B1E001C01D92A035B207E1F722
:1000E00011E0A0E0B1E0E0E7F3E102C005900D927D
:1000F000AC39B107D9F710E0C2E6D0E004C02197CF
:10010000FE010E94B307C136D107C9F70E94E2037E
:100110000C94B6090C940000833081F028F48130EF
:1001200099F08230A9F008958730A9F08830C9F09D
:100130008430B1F4809180008F7D03C08091800075
:100140008F7780938000089584B58F7784BD08955C
:1001500084B58F7DFBCF8091B0008F778093B00006
:1001600008958091B0008F7DF9CF1F93CF93DF93D7
:10017000282F30E0F901E255FF4F8491F901E6564E
:10018000FF4FD491F901EA57FF4FC491CC23A9F056
:10019000162F81110E948C00EC2FF0E0EE0FFF1F54
:1001A000E458FF4FA591B4918FB7F894EC911111D9
:1001B00008C0D095DE23DC938FBFDF91CF911F91D4
:1001C0000895DE2BF8CFCF93DF9390E0FC01E65645
:1001D000FF4F24918A579F4FFC0184918823D1F0CF
:1001E00090E0880F991FFC01EE58FF4FA591B49144
:1001F000FC01E458FF4FC591D491623071F49FB770
:10020000F8943C91822F809583238C93E8812E2B48
:1002100028839FBFDF91CF9108958FB7F894EC9119
:100220002E2B2C938FBFF6CFAF92BF92CF92DF923F
:10023000EF92FF920F931F93CF93DF936C017B019B
:100240008B01040F151FEB015E01AE18BF08C0172C
:10025000D10759F06991D601ED91FC910190F0819F
:10026000E02DC6010995892B79F7C501DF91CF9162
:100270001F910F91FF90EF90DF90CF90BF90AF90C4
:100280000895FC01538D448D252F30E0842F90E09C
:10029000821B930B541710F0CF9608950197089581
:1002A000FC01918D828D981761F0A28DAE0FBF2F4A
:1002B000B11D5D968C91928D9F5F9F73928F90E0A0
:1002C00008958FEF9FEF08952FB7F8948091AB01B9
:1002D0009091AC01A091AD01B091AE012FBF809380
:1002E000B7019093B801A093B901B093BA018FEA16
:1002F00091E00E94500197FF26C02FB7F89480919B
:10030000AB019091AC01A091AD01B091AE012FBFB6
:100310004091B7015091B8016091B9017091BA0153
:10032000841B950BA60BB70B4091B3015091B40100
:100330006091B5017091B60184179507A607B707BC
:10034000B0F28FEF9FEF0895FC01918D828D981789
:1003500031F0828DE80FF11D858D90E008958FEFCB
:100360009FEF0895FC01918D228D892F90E0805C94
:100370009F4F821B91098F73992708958FEA91E00F
:100380000E94B20121E0892B09F420E0822F089518
:1003900080E090E0892B29F00E94BE0181110C942D
:1003A00000000895FC01A48DA80FB92FB11DA35A18
:1003B000BF4F2C91848D90E001968F739927848F85
:1003C000A689B7892C93A089B1898C9183708064A8
:1003D0008C93938D848D981306C00288F389E02D49
:1003E00080818F7D80830895EF92FF920F931F93FA
:1003F000CF93DF93EC0181E0888F9B8D8C8D9813D8
:100400001AC0E889F989808185FF15C09FB7F894E3
:10041000EE89FF896083E889F9898081837080642F
:1004200080839FBF81E090E0DF91CF911F910F917A
:10043000FF90EF900895F62E0B8D10E00F5F1F4F89
:100440000F731127E02E8C8D8E110CC00FB607FC98
:10045000FACFE889F989808185FFF5CFCE010E9426
:10046000D201F1CFEB8DEC0FFD2FF11DE35AFF4FC1
:10047000F0829FB7F8940B8FEA89FB8980818062B4
:10048000CFCFCF93DF93EC01888D8823B9F0AA8971
:10049000BB89E889F9898C9185FD03C0808186FD3F
:1004A0000DC00FB607FCF7CF8C9185FFF2CF80818E
:1004B00085FFEDCFCE010E94D201E9CFDF91CF9130
:1004C0000895CF93DF93FC0101900020E9F7319765
:1004D000AF01481B590BBC018FEA91E00E94140147
:1004E000EC0142E050E068E271E08FEA91E00E94A6
:1004F00014018C0F9D1FDF91CF910895FC01808125
:100500009181009711F00C94550808950F931F9353
:10051000CF93DF93EC0188819981009759F02A816C
:100520003B812617370730F081E0DF91CF911F9193
:100530000F9108958B016F5F7F4F0E94DE08009737
:1005400059F0998388831B830A832C813D81232B57
:1005500059F7FC011082E8CF80E0E7CFEF92FF92DD
:100560000F931F93CF93DF93EC017B018A01BA01B4
:100570000E94860228813981811114C0211531051C
:1005800019F0C9010E945508198218821D821C8227
:100590001B821A82CE01DF91CF911F910F91FF90A4
:1005A000EF9008951D830C83B701C9010E94AF0924
:1005B000F1CFAF92BF92CF92DF92EF92FF920F9363
:1005C0001F93CF93DF93EC016B015A01790124173C
:1005D000350720F48B2D5901E42EF82E198218824C
:1005E0001B821A821D821C8250E040E06AE271E0A8
:1005F000CE010E94AE02D60114960D911C91A01658
:10060000B10628F5E016F10608F48701D601ED9150
:10061000FC911197E00FF11FF08010826D917C9199
:100620006A0D7B1D61157105F1F0FB010190002041
:10063000E9F73197AF01461B570BCE010E94AE027E
:10064000F60180819181080F191FD801FC92CE011B
:10065000DF91CF911F910F91FF90EF90DF90CF909E
:10066000BF90AF90089588819981009711F00E9402
:100670005508198218821D821C821B821A82E0CFC3
:100680001F920F920FB60F9211242F933F938F93C7
:100690009F93AF93BF938091AB019091AC01A091D8
:1006A000AD01B091AE013091AA0123E0230F2D37A7
:1006B00058F50196A11DB11D2093AA018093AB01AD
:1006C0009093AC01A093AD01B093AE018091A601CF
:1006D0009091A701A091A801B091A9010196A11D37
:1006E000B11D8093A6019093A701A093A801B09398
:1006F000A901BF91AF919F918F913F912F910F9041
:100700000FBE0F901F90189526E8230F0296A11D8B
:10071000B11DD2CF1F920F920FB60F9211242F93BB
:100720003F934F935F936F937F938F939F93AF9379
:10073000BF93EF93FF938FEA91E00E94D201FF9164
:10074000EF91BF91AF919F918F917F916F915F9149
:100750004F913F912F910F900FBE0F901F901895C2
:100760001F920F920FB60F9211242F938F939F9386
:10077000EF93FF93E091BF01F091C0018081E09180
:10078000C501F091C60182FD1BC090818091C80116
:100790008F5F8F732091C901821741F0E091C801EA
:1007A000F0E0E155FE4F958F8093C801FF91EF91E6
:1007B0009F918F912F910F900FBE0F901F901895C2
:1007C0008081F4CFCF93DF93CDB7DEB762970FB6BA
:1007D000F894DEBF0FBECDBF789484B5826084BD2F
:1007E00084B5816084BD85B5826085BD85B5816035
:1007F00085BD80916E00816080936E0010928100B3
:10080000809181008260809381008091810081606D
:10081000809381008091800081608093800080912E
:10082000B10084608093B1008091B00081608093BA
:10083000B00080917A00846080937A0080917A0081
:10084000826080937A0080917A00816080937A0040
:1008500080917A00806880937A001092C100E091C4
:10086000BF01F091C00182E08083E091BB01F09173
:10087000BC011082E091BD01F091BE018FEC80833C
:100880001092C701E091C301F091C40186E080831A
:10089000E091C101F091C201808180618083E0918B
:1008A000C101F091C201808188608083E091C10123
:1008B000F091C201808180688083E091C101F09154
:1008C000C20180818F7D808361E082E00E94E3002D
:1008D00061E083E00E94E30061E084E00E94E300C5
:1008E00061E085E00E94E30061E086E00E94E300B1
:1008F00061E087E00E94E30062E088E00E94E3009C
:1009000061E084E00E94B50061E087E00E94B500EC
:1009100046EB242E40E0342E2EE8822E20E0922E4C
:1009200030E0A32E30E0B32E8FEA91E00E94B201B6
:10093000181619060CF0F0C01E861D86188A1F8630
:100940001A8A198A50E040E06AE271E0CE010D9601
:100950000E94AE020E94640197FD1EC08A3091057C
:10096000D9F089831A8209891A890F5F1F4FB8014C
:10097000CE010D960E948602882361F32D853E8567
:1009800089899A89BE016F5F7F4F820F931F0E94F2
:10099000AF091A8B098BDECF18861F821A8619863B
:1009A0001C861B866D857E856115710531F0498930
:1009B0005A89CE0107960E94AE020B851C8501154F
:1009C000110561F0CF80D8846CE270E0C6010E940E
:1009D000A4097C01EC18FD08892B19F4EE24EA9493
:1009E000FE2C67018FEFC81AD80AC016D10670F422
:1009F0006F8078846CE270E0C3018C0D9D1D0E94B5
:100A0000A4098C0106191709892B11F40FEF1FEFA8
:100A10001E141F040CF078C0E016F1060CF074C030
:100A2000970150E040E0BE01695F7F4FCE01019623
:100A30000E94D90289819A8120E030E0A9010097C3
:100A400021F00E9426079B01AC01A8EEB3E00E94B2
:100A50006207609308017093090180930A019093E3
:100A60000B01CE0101960E947E029801A601BE01F3
:100A7000695F7F4FCE0101960E94D90289819A81D8
:100A800020E030E0A901009721F00E9426079B0199
:100A9000AC01A8EEB3E00E9462076093040170937A
:100AA00005018093060190930701CE0101960E94F3
:100AB0007E022B853C85A8014F5F5F4FBE01695FB9
:100AC0007F4FCE0101960E94D90289819A8120E050
:100AD00030E0A901009721F00E9426079B01AC019C
:100AE000A8EEB3E00E9462076093000170930101D9
:100AF0008093020190930301CE0101960E947E0231
:100B000085E491E00E946102CE0107960E947E0278
:100B1000CE010D960E947E028FB7F894C090AB0173
:100B2000D090AC01E090AD01F090AE018FBF20916C
:100B3000A4013091A50140919C0150919D016091CB
:100B40009E0170919F018091080190910901A091EF
:100B50000A01B0910B0126013701441A550A660AB1
:100B6000770A232B09F0F1C0481659066A067B065E
:100B700008F08DC061E082E00E94B50060E083E093
:100B80000E94B50060E084E00E94B50060E085E06E
:100B90000E94B50060E086E00E94B50061E087E059
:100BA0000E94B5008BE291E00E946102F101849104
:100BB000E2EAF0E01491F4010491002309F413C176
:100BC00081110E948C00E02FF0E0EE0FFF1FE8592A
:100BD000FF4FA591B4918C91182391E080E009F426
:100BE00090E0092F182F80910E0190910F0180172E
:100BF000910741F0C092A001D092A101E092A20120
:100C0000F092A3018091A0019091A101A091A20175
:100C1000B091A301C81AD90AEA0AFB0AF3E3CF1676
:100C2000D104E104F10418F180910C0190910D01BF
:100C300080179107E1F010930D0100930C0101154D
:100C40001105A9F48091A4019091A50121E030E063
:100C5000009711F030E020E03093A5012093A4012B
:100C6000892B09F0C3C088E391E00E9461021093D0
:100C70000F0100930E01A114B10409F455CE0E9496
:100C8000BE01882309F448CE0E94000045CE409161
:100C90000401509105016091060170910701840FD4
:100CA000951FA61FB71F60E0481659066A067B0607
:100CB00070F482E00E94B50061E083E00E94B5001C
:100CC00060E084E00E94B50083E691E06DCF82E0B1
:100CD0000E94B50060E083E00E94B50061E084E01E
:100CE0000E94B50081E791E00E94610280910801B5
:100CF00090910901A0910A01B0910B01409104016A
:100D0000509105016091060170910701840F951FB4
:100D1000A61FB71F4091000150910101609102018F
:100D200070910301840F951FA61FB71F84159505A9
:100D3000A605B70508F03ACFC0929C01D0929D015C
:100D4000E0929E01F0929F0131CF481659066A0643
:100D50007B06D8F461E085E00E94B50060E086E0A3
:100D60000E94B50060E087E00E94B50060E082E08C
:100D70000E94B50060E083E00E94B50061E084E07D
:100D80000E94B50088E391E00FCF4091040150919B
:100D900005016091060170910701840F951FA61F40
:100DA000B71F60E0481659066A067B0670F485E0B6
:100DB0000E94B50061E086E00E94B50060E087E037
:100DC0000E94B5008FE791E0EFCE85E00E94B5006C
:100DD00060E086E00E94B50061E087E00E94B50017
:100DE0008DE891E081CF10E000E0FDCE8BE291E054
:100DF0003CCFEFEAF1E01382128288EE93E0A0E0AC
:100E0000B0E084839583A683B7838AE191E09183E0
:100E1000808385EC90E09587848784EC90E09787C9
:100E2000868780EC90E0918B808B81EC90E0938BB7
:100E3000828B82EC90E0958B848B86EC90E0978B94
:100E4000868B118E128E138E148E08951F93FC01C3
:100E500099278827BC01E89411911032E9F31930E1
:100E600010F01E30C8F31B3251F01D3249F4689463
:100E700006C00E944D07610F711D811D911D1191CA
:100E800010531A30B0F33EF49095809570956195AB
:100E90007F4F8F4F9F4F1F910895592F482F372F06
:100EA000262F660F771F881F991F660F771F881FD1
:100EB000991F620F731F841F951F660F771F881F6E
:100EC000991F08950E94A407A59F900DB49F900DAF
:100ED000A49F800D911D112408952F923F924F924F
:100EE0005F926F927F928F929F92AF92BF92CF92BA
:100EF000DF92EF92FF920F931F93CF93DF93CDB7C3
:100F0000DEB7CA1BDB0B0FB6F894DEBF0FBECDBF3A
:100F100009942A88398848885F846E847D848C840B
:100F20009B84AA84B984C884DF80EE80FD800C8114
:100F30001B81AA81B981CE0FD11D0FB6F894DEBFF7
:100F40000FBECDBFED010895A29FB001B39FC001B8
:100F5000A39F700D811D1124911DB29F700D811DE5
:100F60001124911D0895EE0FFF1F0590F491E02DBF
:100F700009940F931F93CF93DF938230910510F460
:100F800082E090E0E0914E02F0914F0230E020E0EC
:100F9000B0E0A0E0309799F42115310509F44AC07A
:100FA000281B390B24303105D8F58A819B816115C6
:100FB000710589F1FB0193838283FE0111C0408199
:100FC00051810281138148175907E0F048175907EA
:100FD00099F4109761F012960C93129713961C9344
:100FE0003296CF01DF91CF911F910F910895009319
:100FF0004E0210934F02F4CF2115310551F04217E4
:10100000530738F0A901DB019A01BD01DF01F801A6
:10101000C1CFEF01F9CF90934F0280934E02CDCF15
:10102000FE01E20FF31F819391932250310939831E
:101030002883D7CF20914C0230914D02232B41F4CD
:10104000209112013091130130934D0220934C02F4
:1010500020911001309111012115310541F42DB776
:101060003EB74091140150911501241B350BE091BE
:101070004C02F0914D02E217F307A0F42E1B3F0B38
:101080002817390778F0AC014E5F5F4F24173507FA
:1010900048F04E0F5F1F50934D0240934C028193D6
:1010A00091939FCFF0E0E0E09CCFCF93DF93009748
:1010B000E9F0FC01329713821282A0914E02B091A6
:1010C0004F02ED0130E020E01097A1F42081318142
:1010D000820F931F20914C0230914D02281739073F
:1010E00009F061C0F0934D02E0934C02DF91CF9183
:1010F0000895EA01CE17DF07E8F54A815B819E017A
:1011000041155105B1F7E901FB83EA8349915991F2
:10111000C40FD51FEC17FD0761F480819181029601
:10112000840F951FE90199838883828193819B8332
:101130008A83F0E0E0E012968D919C9113970097DE
:10114000B9F52D913C911197CD010296820F931F15
:1011500020914C0230914D022817390739F630970B
:1011600051F510924F0210924E02B0934D02A0938F
:101170004C02BCCFD383C28340815181840F951F21
:10118000C817D90761F44E5F5F4F88819981480F76
:10119000591F518340838A819B81938382832115C8
:1011A000310509F0B0CFF0934F02E0934E029ECF8D
:1011B000FD01DC01C0CF13821282D7CFB0E0A0E0E6
:1011C000E4EEF8E00C946F078C01009751F4CB012A
:1011D0000E94B9078C01C801CDB7DEB7E0E10C94DD
:1011E0008B07FC01E60FF71F9C0122503109E21723
:1011F000F30708F49DC0D901CD91DC911197C61772
:10120000D70798F0C530D10530F3CE010497861783
:10121000970708F3C61BD70B2297C193D1936D9301
:101220007C93CF010E945508D6CF5B01AC1ABD0A52
:101230004C018C0E9D1EA0914E02B0914F02512C7C
:10124000412CF12CE12C109731F580914C029091BA
:101250004D028815990509F05CC04616570608F03E
:1012600058C08091100190911101009741F48DB701
:101270009EB74091140150911501841B950BE817FE
:10128000F90708F055C0F0934D02E0934C02F901C4
:1012900071836083A0CF8D919C91119712966C9071
:1012A000129713967C901397A815B90559F56C0100
:1012B00042E0C40ED11CCA14DB0420F1AC014A196F
:1012C0005B09DA011296159780F06282738251836E
:1012D0004083D9016D937C93E114F10471F0D7013F
:1012E0001396FC93EE93129776CF22968C0F9D1F48
:1012F000F90191838083F301EFCFF0934F02E093E4
:101300004E0269CF4816590608F42C017D01D3011D
:101310009ACFCB010E94B9077C01009749F0AE013A
:10132000B8010E949B09C8010E945508870153CF4C
:1013300010E000E050CFFB01DC0102C001900D92F3
:1013400041505040D8F70895FC018191861721F053
:101350008823D9F7992708953197CF010895FB0184
:10136000DC0101900D920020E1F70895F894FFCF81
:101370001027000088130000102700000100010062
:1013800000005002800000000000F401140141013F
:101390004102B2015001A4010D0A0058616E68209B
:1013A000312042E1BAAD740058616E6820322042AB
:1013B000E1BAAD7400C490C3A3206E68E1BAAD6E0B
:1013C000207468E1BB9D69206769616E206DE1BB97
:1013D0009B690056C3A06E6720312042E1BAAD740C
:1013E00000C490E1BB8F20312042E1BAAD740056B9
:1013F000C3A06E6720322042E1BAAD7400C490E110
:0C140000BB8F20322042E1BAAD74000026
:00000001FF
