:100000000C945C000C949D010C9476010C94790086
:100010000C9479000C9479000C9479000C9479007C
:100020000C9479000C9479000C9479000C9479006C
:100030000C9479000C9479000C9479000C9479005C
:100040000C942C010C9479000C9479000C94790098
:100050000C9479000C9479000C9479000C9479003C
:100060000C9479000C947900000000002400270013
:100070002A0000000000250028002B0004040404CE
:100080000404040402020202020203030303030342
:10009000010204081020408001020408102001021F
:1000A00004081020000000080002010000030407FB
:1000B000000000000000000011241FBECFEFD8E0B8
:1000C000DEBFCDBF11E0A0E0B1E0E2EEF4E002C09F
:1000D00005900D92A430B107D9F721E0A4E0B1E07A
:1000E00001C01D92AF30B207E1F70E94C4010C9429
:1000F0006F020C940000E1EBF0E02491EDE9F0E0F8
:100100009491E9E8F0E0E491EE23C9F0222339F07C
:10011000233001F1A8F4213019F1223029F1F0E067
:10012000EE0FFF1FEE58FF4FA591B4912FB7F89433
:10013000EC91811126C090959E239C932FBF08952A
:100140002730A9F02830C9F0243049F720918000E9
:100150002F7D03C0209180002F7720938000DFCF78
:1001600024B52F7724BDDBCF24B52F7DFBCF209185
:10017000B0002F772093B000D2CF2091B0002F7D18
:10018000F9CF9E2BDACF3FB7F89480910B01909175
:100190000C01A0910D01B0910E0126B5A89B05C0E0
:1001A0002F3F19F00196A11DB11D3FBFBA2FA92FF6
:1001B000982F8827BC01CD01620F711D811D911DF3
:1001C00042E0660F771F881F991F4A95D1F708955F
:1001D0008F929F92AF92BF92CF92DF92EF92FF9257
:1001E0000E94C3004B015C0188EEC82E83E0D82E2C
:1001F000E12CF12C0E94C300681979098A099B0936
:10020000683E734081059105A8F321E0C21AD10828
:10021000E108F10888EE880E83E0981EA11CB11C4D
:10022000C114D104E104F10429F7FF90EF90DF90AD
:10023000CF90BF90AF909F908F90089580910401D0
:100240008B3039F481E08093040181E080930501D3
:1002500008958F5FF8CF08951F920F920FB60F92F7
:1002600011242F933F938F939F93AF93BF938091CC
:10027000070190910801A0910901B0910A01309104
:10028000060123E0230F2D3758F50196A11DB11D5E
:10029000209306018093070190930801A093090120
:1002A000B0930A0180910B0190910C01A0910D0176
:1002B000B0910E010196A11DB11D80930B01909389
:1002C0000C01A0930D01B0930E01BF91AF919F91CE
:1002D0008F913F912F910F900FBE0F901F90189507
:1002E00026E8230F0296A11DB11DD2CF1F920F92B7
:1002F0000FB60F9211242F933F934F935F936F93F9
:100300007F938F939F93AF93BF93EF93FF93E0916E
:100310000201F09103010995FF91EF91BF91AF9117
:100320009F918F917F916F915F914F913F912F910D
:100330000F900FBE0F901F9018951F920F920FB63F
:100340000F9211242F933F934F935F936F937F935B
:100350008F939F93AF93BF93EF93FF93E09100012F
:10036000F09101010995FF91EF91BF91AF919F919C
:100370008F917F916F915F914F913F912F910F904E
:100380000FBE0F901F901895789484B5826084BD3D
:1003900084B5816084BD85B5826085BD85B5816089
:1003A00085BD80916E00816080936E001092810007
:1003B00080918100826080938100809181008160C2
:1003C0008093810080918000816080938000809183
:1003D000B10084608093B1008091B000816080930F
:1003E000B00080917A00846080937A0080917A00D6
:1003F000826080937A0080917A00816080937A0095
:1004000080917A00806880937A001092C100EDE9B3
:10041000F0E02491E9E8F0E08491882399F090E0FD
:10042000880F991FFC01E859FF4FA591B491FC0179
:10043000EE58FF4F859194918FB7F894EC91E22B91
:10044000EC938FBFE2E9F0E02491EEE7F0E08491D5
:100450008823C1F090E0880F991FFC01E859FF4FF5
:10046000C591D491FC01EE58FF4FA591B4919FB76F
:10047000F8943881822F809583238883EC91E22B36
:10048000EC939FBF8EE191E0909301018093000176
:10049000809169008C7F80936900E89A00E010E009
:1004A00080910501882399F0C1E0D0E0809104019A
:1004B0008C171D0664F081E00E947B000E94E8001A
:1004C00080E00E947B000E94E8002196EFCF10920E
:1004D00005010115110521F30E940000E1CFF894F8
:0204E000FFCF4C
:0404E2002B012B01BE
:00000001FF
