:020000040000FA
:100000000C9461000C947E000C947E000C947E0095
:100010000C947E000C947E000C947E000C947E0068
:100020000C947E000C947E000C947E000C947E0058
:100030000C947E000C947E000C947E000C947E0048
:100040000C94CE000C947E000C947E000C947E00E8
:100050000C947E000C947E000C947E000C947E0028
:100060000C947E000C947E00000000002400270009
:100070002A000000000023002600290000000000E4
:10008000250028002B0004040404040404040202D4
:100090000202020203030303030301020408102007
:1000A0004080010204081020010204081020000012
:1000B0000008000201000003040700000000000027
:1000C000000011241FBECFEFD8E0DEBFCDBF11E08E
:1000D000A0E0B1E0E2ECF4E002C005900D92AA3994
:1000E000B107D9F721E0AAE9B1E001C01D92A93A10
:1000F000B207E1F70E9418010C945F020C94000013
:10010000833081F028F4813099F08230A9F008958D
:100110008730A9F08830C9F08430B1F48091800034
:100120008F7D03C0809180008F7780938000089539
:1001300084B58F7784BD089584B58F7DFBCF809182
:10014000B0008F778093B00008958091B0008F7DCC
:10015000F9CF3FB7F8948091A5019091A601A091A5
:10016000A701B091A80126B5A89B05C02F3F19F0A3
:100170000196A11DB11D3FBFBA2FA92F982F882727
:10018000BC01CD01620F711D811D911D42E0660F02
:10019000771F881F991F4A95D1F708951F920F92D4
:1001A0000FB60F9211242F933F938F939F93AF938A
:1001B000BF938091A1019091A201A091A301B09160
:1001C000A4013091A00123E0230F2D3758F50196AB
:1001D000A11DB11D2093A0018093A1019093A201C4
:1001E000A093A301B093A4018091A5019091A601D1
:1001F000A091A701B091A8010196A11DB11D809306
:10020000A5019093A601A093A701B093A801BF9167
:10021000AF919F918F913F912F910F900FBE0F90B3
:100220001F90189526E8230F0296A11DB11DD2CF6D
:10023000789484B5826084BD84B5816084BD85B5C1
:10024000826085BD85B5816085BD80916E008160CD
:1002500080936E0010928100809181008260809373
:100260008100809181008160809381008091800075
:100270008160809380008091B10084608093B100A0
:100280008091B00081608093B00080917A0084609A
:1002900080937A0080917A00826080937A008091C6
:1002A0007A00816080937A0080917A0080688093E0
:1002B0007A001092C100A0E0B1E08D919D91992744
:1002C000FC01E656FF4F24918A579F4FFC01849111
:1002D000882399F090E0880F991FFC01E859FF4F9F
:1002E000C591D491FC01E458FF4F859194918FB74B
:1002F000F894E881E22BE8838FBFF1E0AE30BF07CE
:10030000E1F673EA872E70E0972EF40124910FE84E
:1003100010E0F80184918823C1F090E0880F991FC4
:10032000FC01E859FF4FA591B491FC01E458FF4F3F
:10033000C591D4913FB7F8949C91822F80959823D2
:100340009C939881892388833FBF47EB242E40E00C
:10035000342E50E0A52E50E0B52EF1018491F40129
:10036000C491F801D491DD2309F49FC081110E944A
:100370008000ED2FF0E0EE0FFF1FEE58FF4FA5912C
:10038000B4918C91C82391E080E009F490E0C92FEA
:10039000D82FD0939F01C0939E0180919C01909192
:1003A0009D018C179D07A1F1C130D10569F48091A1
:1003B0009A0190919B0101968A3091050CF078C0CA
:1003C00090939B0180939A010E94A9002B013C010C
:1003D00022E3C22ED12CE12CF12C0E94A900641939
:1003E000750986099709683E734081059105A8F350
:1003F000F1E0CF1AD108E108F10828EE420E23E01F
:10040000521E611C711CC114D104E104F10429F7CE
:10041000D0939D01C0939C0180919A0190919B0182
:10042000FEE0F89F6001F99FD00C112490E0E92EC6
:1004300091E0F92ED0E0C0E0F701219131917F01E8
:100440003327F901E255FF4F8491F901E656FF4F3A
:100450007490F901EA57FF4F54905520D1F0F601FE
:10046000EC0FFD1FE25FFE4F608081110E94800053
:10047000E52DF0E0EE0FFF1FE458FF4FA591B4917A
:100480008FB7F894EC91611018C070947E227C9222
:100490008FBF2296CE30D10509F0CECFA114B10482
:1004A00009F45BCF0E94000058CFD0E0C0E071CFCC
:1004B00010929B0110929A0187CF7E2AE8CFF89480
:1004C000FFCF02000300040005000600070008003B
:1004D0000100010001000100010001000000000016
:1004E0000100010000000000000000000100010008
:1004F00000000100010000000100010001000100F6
:1005000001000000000001000000010001000000E7
:1005100000000100010001000000010001000000D6
:1005200001000100010000000100010001000100C4
:1005300001000100010001000000000000000000B7
:1005400001000100010001000100010001000100A3
:0C0550000100010000000000010001009B
:107E0000112484B714BE81FFF0D085E080938100F7
:107E100082E08093C00088E18093C10086E0809377
:107E2000C20080E18093C4008EE0C9D0259A86E02C
:107E300020E33CEF91E0309385002093840096BBD3
:107E4000B09BFECF1D9AA8958150A9F7CC24DD24C4
:107E500088248394B5E0AB2EA1E19A2EF3E0BF2EE7
:107E6000A2D0813461F49FD0082FAFD0023811F036
:107E7000013811F484E001C083E08DD089C08234E0
:107E800011F484E103C0853419F485E0A6D080C0E4
:107E9000853579F488D0E82EFF2485D0082F10E0AE
:107EA000102F00270E291F29000F111F8ED06801E7
:107EB0006FC0863521F484E090D080E0DECF843638
:107EC00009F040C070D06FD0082F6DD080E0C81688
:107ED00080E7D80618F4F601B7BEE895C0E0D1E017
:107EE00062D089930C17E1F7F0E0CF16F0E7DF06D8
:107EF00018F0F601B7BEE89568D007B600FCFDCFD4
:107F0000A601A0E0B1E02C9130E011968C91119780
:107F100090E0982F8827822B932B1296FA010C0160
:107F200087BEE89511244E5F5F4FF1E0A038BF0790
:107F300051F7F601A7BEE89507B600FCFDCF97BE46
:107F4000E89526C08437B1F42ED02DD0F82E2BD052
:107F50003CD0F601EF2C8F010F5F1F4F84911BD097
:107F6000EA94F801C1F70894C11CD11CFA94CF0C13
:107F7000D11C0EC0853739F428D08EE10CD085E9AC
:107F80000AD08FE07ACF813511F488E018D01DD067
:107F900080E101D065CF982F8091C00085FFFCCF94
:107FA0009093C60008958091C00087FFFCCF809118
:107FB000C00084FD01C0A8958091C6000895E0E648
:107FC000F0E098E1908380830895EDDF803219F02E
:107FD00088E0F5DFFFCF84E1DECF1F93182FE3DFCA
:107FE0001150E9F7F2DF1F91089580E0E8DFEE27F6
:047FF000FF270994CA
:027FFE00040479
:00000001FF
