:100000000C9462000C948A000C948A000C948A0070
:100010000C948A000C948A000C948A000C948A0038
:100020000C948A000C948A000C948A000C948A0028
:100030000C948A000C948A000C948A000C948A0018
:100040000C94A0020C948A000C9410030C94EA0205
:100050000C948A000C948A000C948A000C948A00F8
:100060000C948A000C948A000000000023002600F3
:10007000290000000000240027002A0000000000E2
:10008000250028002B0004040404040404040202D4
:100090000202020203030303030301020408102007
:1000A0004080010204081020010204081020000012
:1000B0000008000201000003040700000000000027
:1000C0000000A70511241FBECFEFD8E0DEBFCDBFD3
:1000D00021E0A6E4B1E001C01D92A83FB207E1F71C
:1000E00011E0A0E0B1E0E4ECF0E102C005900D9277
:1000F000A634B107D9F710E0C2E6D0E004C02197DA
:10010000FE010E946806C136D107C9F70E9442036A
:100110000C9460080C940000833081F028F4813046
:1001200099F08230A9F008958730A9F08830C9F09D
:100130008430B1F4809180008F7D03C08091800075
:100140008F7780938000089584B58F7784BD08955C
:1001500084B58F7DFBCF8091B0008F778093B00006
:1001600008958091B0008F7DF9CF1F93CF93DF93D7
:10017000282F30E0F901E255FF4F8491F901E6564E
:10018000FF4FD491F901EA57FF4FC491CC23A9F056
:10019000162F81110E948C00EC2FF0E0EE0FFF1F54
:1001A000E458FF4FA591B4918FB7F894EC911111D9
:1001B00008C0D095DE23DC938FBFDF91CF911F91D4
:1001C0000895DE2BF8CFCF93DF9390E0FC01E65645
:1001D000FF4F24918A579F4FFC0184918823D1F0CF
:1001E00090E0880F991FFC01EE58FF4FA591B49144
:1001F000FC01E458FF4FC591D49161110EC09FB727
:10020000F8948C91E22FE0958E238C932881E22341
:10021000E8839FBFDF91CF9108958FB7F894EC9159
:10022000E22BEC938FBFF6CF3FB7F8948091F001AB
:100230009091F101A091F201B091F30126B5A89B34
:1002400005C02F3F19F00196A11DB11D3FBFBA2F68
:10025000A92F982F8827BC01CD01620F711D811D28
:10026000911D42E0660F771F881F991F4A95D1F7AD
:1002700008958F929F92AF92BF92CF92DF92EF92AA
:10028000FF924B015C010E9414016B017C010E94F2
:1002900014016C197D098E099F09683E7340810520
:1002A0009105A8F321E0821A9108A108B10888EE0F
:1002B000C80E83E0D81EE11CF11C81149104A10436
:1002C000B10429F7FF90EF90DF90CF90BF90AF90EF
:1002D0009F908F900895AF92BF92CF92DF92EF924E
:1002E000FF920F931F93CF93DF936C017B018B01E0
:1002F000040F151FEB015E01AE18BF08C017D10730
:1003000059F06991D601ED91FC910190F081E02DB9
:10031000C6010995892B79F7C501DF91CF911F910E
:100320000F91FF90EF90DF90CF90BF90AF90089526
:10033000FC01538D448D252F30E0842F90E0821BEB
:10034000930B541710F0CF96089501970895FC0170
:10035000918D828D981761F0A28DAE0FBF2FB11DC8
:100360005D968C91928D9F5F9F73928F90E0089520
:100370008FEF9FEF0895FC01918D828D981731F0DA
:10038000828DE80FF11D858D90E008958FEF9FEF2E
:100390000895FC01918D228D892F90E0805C9F4F04
:1003A000821B91098F739927089586E491E00E943A
:1003B000C90121E0892B09F420E0822F089580E013
:1003C00090E0892B29F00E94D50181110C94000046
:1003D0000895FC01A48DA80FB92FB11DA35ABF4FDA
:1003E0002C91848D90E001968F739927848FA68934
:1003F000B7892C93A089B1898C91837080648C9388
:10040000938D848D981306C00288F389E02D808136
:100410008F7D80830895EF92FF920F931F93CF9368
:10042000DF93EC0181E0888F9B8D8C8D98131AC02F
:10043000E889F989808185FF15C09FB7F894EE8916
:10044000FF896083E889F989808183708064808373
:100450009FBF81E090E0DF91CF911F910F91FF90BE
:10046000EF900895F62E0B8D10E00F5F1F4F0F7366
:100470001127E02E8C8D8E110CC00FB607FCFACF21
:10048000E889F989808185FFF5CFCE010E94E901D5
:10049000F1CFEB8DEC0FFD2FF11DE35AFF4FF082F2
:1004A0009FB7F8940B8FEA89FB8980818062CFCF58
:1004B000CF93DF93EC01888D8823B9F0AA89BB899B
:1004C000E889F9898C9185FD03C0808186FD0DC086
:1004D0000FB607FCF7CF8C9185FFF2CF808185FFA7
:1004E000EDCFCE010E94E901E9CFDF91CF910895D0
:1004F0000F931F93CF93DF93EC018881998100972D
:1005000059F02A813B812617370730F081E0DF91CF
:10051000CF911F910F9108958B016F5F7F4F0E94C4
:100520009307009759F0998388831B830A832C8152
:100530003D81232B59F7FC011082E8CF80E0E7CF03
:100540001F920F920FB60F9211242F933F938F9308
:100550009F93AF93BF938091EC019091ED01A09197
:10056000EE01B091EF013091EB0123E0230F2D3725
:1005700058F50196A11DB11D2093EB018093EC016C
:100580009093ED01A093EE01B093EF018091F00103
:100590009091F101A091F201B091F3010196A11D9A
:1005A000B11D8093F0019093F101A093F201B093FB
:1005B000F301BF91AF919F918F913F912F910F9038
:1005C0000FBE0F901F90189526E8230F0296A11DCD
:1005D000B11DD2CF1F920F920FB60F9211242F93FD
:1005E0003F934F935F936F937F938F939F93AF93BB
:1005F000BF93EF93FF9386E491E00E94E901FF919E
:10060000EF91BF91AF919F918F917F916F915F918A
:100610004F913F912F910F900FBE0F901F90189503
:100620001F920F920FB60F9211242F938F939F93C7
:10063000EF93FF93E0915601F09157018081E09193
:100640005C01F0915D0182FD1BC0908180915F0192
:100650008F5F8F7320916001821741F0E0915F01FD
:10066000F0E0EA5BFE4F958F80935F01FF91EF9181
:100670009F918F912F910F900FBE0F901F90189503
:100680008081F4CFCF93DF93CDB7DEB768970FB6F5
:10069000F894DEBF0FBECDBF789484B5826084BD70
:1006A00084B5816084BD85B5826085BD85B5816076
:1006B00085BD80916E00816080936E0010928100F4
:1006C00080918100826080938100809181008160AF
:1006D0008093810080918000816080938000809170
:1006E000B10084608093B1008091B00081608093FC
:1006F000B00080917A00846080937A0080917A00C3
:10070000826080937A0080917A00816080937A0081
:1007100080917A00806880937A001092C10058E13D
:10072000652E51E0752E08E211E07301F70180811A
:10073000F2E0EF0EF11C61E00E94E3000E151F05D0
:10074000A9F760E08AE00E94E30060E08BE00E948D
:10075000E300E0915601F091570182E08083E0913F
:100760005201F09153011082E0915401F091550132
:100770008FEC808310925E01E0915A01F0915B0151
:1007800086E08083E0915801F09159018081806179
:100790008083E0915801F0915901808188608083C5
:1007A000E0915801F0915901808180688083E09147
:1007B0005801F091590180818F7D808344E0242E7F
:1007C000312CCE0101966C0130E0432E30E0532EE7
:1007D000E8EBF0E08491E4EAF0E00491E0E9F0E095
:1007E0001491112309F4FBC081110E948C00E12FA8
:1007F000F0E0EE0FFF1FE859FF4FA591B4918C91E7
:10080000082391E080E009F490E0092F182F8091EF
:10081000E9019091EA018017910799F02FB7F894B8
:100820008091EC019091ED01A091EE01B091EF016A
:100830002FBF8093E5019093E601A093E701B09369
:10084000E8012FB7F8948091EC019091ED01A0910F
:10085000EE01B091EF012FBF4091E5015091E6010B
:100860006091E7017091E801841B950BA60BB70B13
:10087000C397A105B10508F48FC00130110509F037
:100880008BC08091E3019091E4010196B1010E9437
:1008900040069093E4018093E3011C8A1B8A1E8A20
:1008A0001D8A188E1F8A4AE0B6010E94D405F601FF
:1008B00001900020E9F731975F01AC18BD08B50140
:1008C000CE0143960E9478022B893C8981118AC00F
:1008D0002115310519F0C9010E940A071C8A1B8ADB
:1008E000188E1F8A1E8A1D8A1A8219821C821B82F8
:1008F0001E821D826AE170E0C6010E947802298191
:100900003A81811176C02115310519F0C9010E9483
:100910000A071A8219821E821D821C821B828B8802
:100920009C888114910409F46EC0AF88B88CA1141E
:10093000B104B1F08D819E81A80EB91EB501C6012A
:100940000E947802882309F45EC029813A818D8152
:100950009E81B401820F931F0E945908BE82AD820E
:100960004D815E8169817A8186E491E00E946B010C
:1009700042E050E063E471E086E491E00E946B01A4
:1009800089819A81009711F00E940A078B899C89BE
:10099000009711F00E940A071093EA010093E90101
:1009A0000091E3011091E4010130110509F49FC0A9
:1009B000BCF598E1892E91E0992EB12CA12C01155E
:1009C000110509F463C04114510409F401CF0E94D8
:1009D000D501882309F4FCCE0E940000F5CE10E07A
:1009E00000E015CFB88EAF8AB601C9010E94590840
:1009F0007BCF8AE190E09E838D8368E271E0C9013C
:100A00000E9459088CCF89819A81009711F00E9429
:100A10000A071A8219821E821D821C821B82A0CFA5
:100A20000230110509F47BC00330110561F608E1BD
:100A300011E0F801B0800E5F1F4F61E08B2D0E9426
:100A4000B50068EC70E080E090E00E94390160E061
:100A50008B2D0E94B5000E151F0559F708E211E015
:100A600002501109F801B08061E08B2D0E94B500A1
:100A700068EC70E080E090E00E94390160E08B2D2E
:100A80000E94B5006016710659F79DCFF401808170
:100A9000F2E08F0E911C61E0A0FC60E00E94B500C6
:100AA0008FEFA81AB80A98E0A916B10479F764EF95
:100AB00071E080E090E00E94390188E1A82E81E099
:100AC000B82EF5018081F2E0AF0EB11C60E000FDB0
:100AD00061E00E94B5000F5F1F4F0830110589F7D4
:100AE00064EF71E080E090E00E9439016CCF08E192
:100AF00011E0F801B0800E5F1F4F61E08B2D0E9466
:100B0000B50068EC70E080E090E00E94390160E0A0
:100B10008B2D0E94B5000E151F0559F754CF08E222
:100B200011E002501109F801B08061E08B2D0E94A4
:100B3000B50068EC70E080E090E00E94390160E070
:100B40008B2D0E94B5006016710659F73CCFE6E484
:100B5000F1E01382128288EE93E0A0E0B0E084839B
:100B60009583A683B7838AE091E09183808385ECA7
:100B700090E09587848784EC90E09787868780EC67
:100B800090E0918B808B81EC90E0938B828B82EC58
:100B900090E0958B848B86EC90E0978B868B118E02
:100BA000128E138E148E0895BB274A3031F4992388
:100BB00022F4BDE2909581959F4F0C94E005BB27F0
:100BC000FB015527AA27880F991FAA1FA41710F009
:100BD000A41B83955051B9F7A05DAA3308F0A95D15
:100BE000A193009779F7B111B1931192CB010C94B5
:100BF000F905DC01FC01672F71917723E1F732974A
:100C000004C07C916D9370836291AE17BF07C8F3E7
:100C100008952F923F924F925F926F927F928F92A0
:100C20009F92AF92BF92CF92DF92EF92FF920F937B
:100C30001F93CF93DF93CDB7DEB7CA1BDB0B0FB685
:100C4000F894DEBF0FBECDBF09942A883988488842
:100C50005F846E847D848C849B84AA84B984C884D8
:100C6000DF80EE80FD800C811B81AA81B981CE0FCF
:100C7000D11D0FB6F894DEBF0FBECDBFED010895B4
:100C800097FB072E16F4009407D077FD09D00E9439
:100C9000540607FC05D03EF4909581959F4F08952A
:100CA000709561957F4F0895AA1BBB1B51E107C04A
:100CB000AA1FBB1FA617B70710F0A61BB70B881FEC
:100CC000991F5A95A9F780959095BC01CD0108957B
:100CD000EE0FFF1F0590F491E02D09940F931F93E1
:100CE000CF93DF938230910510F482E090E0E091A1
:100CF000F601F091F70130E020E0B0E0A0E030979D
:100D000099F42115310509F44AC0281B390B243008
:100D10003105D8F58A819B816115710589F1FB0147
:100D200093838283FE0111C040815181028113812E
:100D300048175907E0F04817590799F4109761F0E0
:100D400012960C93129713961C933296CF01DF9153
:100D5000CF911F910F9108950093F6011093F70121
:100D6000F4CF2115310551F04217530738F0A9018E
:100D7000DB019A01BD01DF01F801C1CFEF01F9CF1D
:100D80009093F7018093F601CDCFFE01E20FF31FA0
:100D9000819391932250310939832883D7CF2091B1
:100DA000F4013091F501232B41F42091020130919F
:100DB00003013093F5012093F4012091000130915B
:100DC00001012115310541F42DB73EB740910401D1
:100DD00050910501241B350BE091F401F091F501D0
:100DE000E217F307A0F42E1B3F0B2817390778F002
:100DF000AC014E5F5F4F2417350748F04E0F5F1F61
:100E00005093F5014093F401819391939FCFF0E0CB
:100E1000E0E09CCFCF93DF930097E9F0FC0132979D
:100E200013821282A091F601B091F701ED0130E03A
:100E300020E01097A1F420813181820F931F20912F
:100E4000F4013091F5012817390709F061C0F093DA
:100E5000F501E093F401DF91CF910895EA01CE17F7
:100E6000DF07E8F54A815B819E0141155105B1F725
:100E7000E901FB83EA8349915991C40FD51FEC170F
:100E8000FD0761F4808191810296840F951FE9012D
:100E900099838883828193819B838A83F0E0E0E059
:100EA00012968D919C9113970097B9F52D913C91D5
:100EB0001197CD010296820F931F2091F40130917A
:100EC000F5012817390739F6309751F51092F701D7
:100ED0001092F601B093F501A093F401BCCFD38337
:100EE000C28340815181840F951FC817D90761F4CF
:100EF0004E5F5F4F88819981480F591F518340830E
:100F00008A819B81938382832115310509F0B0CFBB
:100F1000F093F701E093F6019ECFFD01DC01C0CF15
:100F200013821282D7CFB0E0A0E0E9E9F7E00C9499
:100F30000B068C01009751F4CB010E946E068C01C8
:100F4000C801CDB7DEB7E0E10C942706FC01E60F3F
:100F5000F71F9C0122503109E217F30708F49DC0E6
:100F6000D901CD91DC911197C617D70798F0C530FC
:100F7000D10530F3CE0104978617970708F3C61BF7
:100F8000D70B2297C193D1936D937C93CF010E948D
:100F90000A07D6CF5B01AC1ABD0A4C018C0E9D1E10
:100FA000A091F601B091F701512C412CF12CE12CCC
:100FB000109731F58091F4019091F501881599050C
:100FC00009F05CC04616570608F058C08091000131
:100FD00090910101009741F48DB79EB740910401B3
:100FE00050910501841B950BE817F90708F055C0CF
:100FF000F093F501E093F401F90171836083A0CFD0
:101000008D919C91119712966C90129713967C90EB
:101010001397A815B90559F56C0142E0C40ED11C0F
:10102000CA14DB0420F1AC014A195B09DA011296FB
:10103000159780F06282738251834083D9016D934A
:101040007C93E114F10471F0D7011396FC93EE93B5
:10105000129776CF22968C0F9D1FF9019183808382
:10106000F301EFCFF093F701E093F60169CF481653
:10107000590608F42C017D01D3019ACFCB010E94BF
:101080006E067C01009749F0AE01B8010E9450083D
:10109000C8010E940A07870153CF10E000E050CF3B
:1010A000FB01DC0102C001900D9241505040D8F785
:1010B0000895FB01DC0101900D920020E1F70895F5
:0410C000F894FFCFD2
:1010C4000000F8018000000000000B026B01980191
:1010D4005802C901A701BB01020003000400050076
:1010E40006000700080009004368E1BABF20C49164
:1010F400E1BB99206869E1BB876E2074E1BAA169FC
:061104003A20000D0A0074
:00000001FF
