:100000000C945D000C9485000C9485000C94850084
:100010000C9485000C9485000C9485000C9485004C
:100020000C9485000C9485000C9485000C9485003C
:100030000C9485000C9485000C9485000C9485002C
:100040000C94D4010C9485000C9444020C941E0270
:100050000C9485000C9485000C9485000C9485000C
:100060000C9485000C9485000000000024002700FB
:100070002A0000000000250028002B0004040404CE
:100080000404040402020202020203030303030342
:10009000010204081020408001020408102001021F
:1000A00004081020000000080002010000030407FB
:1000B0000000000000000000E70311241FBECFEF86
:1000C000D8E0DEBFCDBF22E0ACEAB1E001C01D92B6
:1000D000A235B207E1F711E0A0E0B1E0ECE6F8E00C
:1000E00002C005900D92AC3AB107D9F710E0CDE50A
:1000F000D0E004C02197FE010E942E04CC35D10728
:10010000C9F70E9476020C9434040C940000AF925C
:10011000BF92CF92DF92EF92FF920F931F93CF93F4
:10012000DF936C017B018B01040F151FEB015E0156
:10013000AE18BF08C017D10759F06991D601ED91EB
:10014000FC910190F081E02DC6010995892B79F78A
:10015000C501DF91CF911F910F91FF90EF90DF903C
:10016000CF90BF90AF900895FC01538D448D252F03
:1001700030E0842F90E0821B930B541710F0CF9641
:10018000089501970895FC01918D828D981761F073
:10019000A28DAE0FBF2FB11D5D968C91928D9F5F8A
:1001A0009F73928F90E008958FEF9FEF0895FC0169
:1001B000918D828D981731F0828DE80FF11D858D1C
:1001C00090E008958FEF9FEF08952FB7F8948091F6
:1001D000B1019091B201A091B301B091B4012FBFD0
:1001E0008093BD019093BE01A093BF01B093C00165
:1001F00085EB91E00E94D70097FF26C02FB7F894B7
:100200008091B1019091B201A091B301B091B4017C
:100210002FBF4091BD015091BE016091BF0170910F
:10022000C001841B950BA60BB70B4091B9015091EF
:10023000BA016091BB017091BC0184179507A607B4
:10024000B707B0F28FEF9FEF0895FC01918D228DDB
:10025000892F90E0805C9F4F821B91098F739927B3
:10026000089585EB91E00E94250121E0892B09F496
:1002700020E0822F089580E090E0892B29F00E94F1
:10028000310181110C9400000895FC01A48DA80F88
:10029000B92FB11DA35ABF4F2C91848D90E00196C8
:1002A0008F739927848FA689B7892C93A089B189E8
:1002B0008C91837080648C93938D848D981306C089
:1002C0000288F389E02D80818F7D80830895EF92ED
:1002D000FF920F931F93CF93DF93EC0181E0888F00
:1002E0009B8D8C8D98131AC0E889F989808185FFD0
:1002F00015C09FB7F894EE89FF896083E889F98972
:1003000080818370806480839FBF81E090E0DF9173
:10031000CF911F910F91FF90EF900895F62E0B8DC6
:1003200010E00F5F1F4F0F731127E02E8C8D8E1181
:100330000CC00FB607FCFACFE889F989808185FFE8
:10034000F5CFCE010E944501F1CFEB8DEC0FFD2FD3
:10035000F11DE35AFF4FF0829FB7F8940B8FEA89A3
:10036000FB8980818062CFCFCF93DF93EC01888DB2
:100370008823B9F0AA89BB89E889F9898C9185FD20
:1003800003C0808186FD0DC00FB607FCF7CF8C91AE
:1003900085FFF2CF808185FFEDCFCE010E94450120
:1003A000E9CFDF91CF9108951F920F920FB60F9270
:1003B00011242F933F938F939F93AF93BF9380917B
:1003C000B1019091B201A091B301B091B40130910B
:1003D000B00123E0230F2D3758F50196A11DB11D63
:1003E0002093B0018093B1019093B201A093B30127
:1003F000B093B4018091AC019091AD01A091AE0198
:10040000B091AF010196A11DB11D8093AC019093F5
:10041000AD01A093AE01B093AF01BF91AF919F9199
:100420008F913F912F910F900FBE0F901F901895B5
:1004300026E8230F0296A11DB11DD2CF1F920F9265
:100440000FB60F9211242F933F934F935F936F93A7
:100450007F938F939F93AF93BF93EF93FF9385EB1E
:1004600091E00E944501FF91EF91BF91AF919F9163
:100470008F917F916F915F914F913F912F910F904D
:100480000FBE0F901F9018951F920F920FB60F92EC
:1004900011242F938F939F93EF93FF93E091C501C6
:1004A000F091C6018081E091CB01F091CC0182FDF9
:1004B0001BC090818091CE018F5F8F732091CF01FF
:1004C000821741F0E091CE01F0E0EB54FE4F958FA2
:1004D0008093CE01FF91EF919F918F912F910F907B
:1004E0000FBE0F901F9018958081F4CF789484B53B
:1004F000826084BD84B5816084BD85B5826085BD20
:1005000085B5816085BD80916E00816080936E00AD
:10051000109281008091810082608093810080919F
:100520008100816080938100809180008160809350
:1005300080008091B10084608093B1008091B00010
:1005400081608093B00080917A00846080937A000B
:1005500080917A00826080937A0080917A00816035
:1005600080937A0080917A00806880937A0010925C
:10057000C10020E231E0A2E1B1E08D919D91992787
:10058000FC01E057FF4F449184589F4FFC01849138
:10059000882399F090E0880F991FFC01E859FF4FDC
:1005A000C591D491FC01EE58FF4F859194918FB77E
:1005B000F894E881E42BE8838FBF2A173B07E9F61C
:1005C000E091C501F091C60182E08083E091C10114
:1005D000F091C2011082E091C301F091C4018FEC4F
:1005E00080831092CD01E091C901F091CA0186E0AB
:1005F0008083E091C701F091C80180818061808390
:10060000E091C701F091C801808188608083E0910A
:10061000C701F091C801808180688083E091C701A3
:10062000F091C80180818F7D80831EE0C0E0D0E022
:1006300085EB91E00E942501892B09F48FC00E946F
:10064000E500FC0197FD9CC08D32910521F0C0971B
:100650000A9708F08EC0C12CD12C760100E0E13061
:10066000F105D9F0ED32F10509F488C0CF01C0974A
:100670000A9798F4AAE0B0E0A70196010E9414043A
:100680006F01FF0FEE08FF08C60ED71EE81EF91E09
:10069000F0E3CF1AD108E108F10885EB91E00E9460
:1006A000C3000E94E500FC01C0970A97C0F2E13048
:1006B000F105A9F2002341F0F094E094D094C094A5
:1006C000C11CD11CE11CF11C8AE0C816D10408F041
:1006D00045C01C9DA0011D9D500D1124A2E1B1E05B
:1006E00030E020E08D919D919927FC01EC55FF4F62
:1006F0007491FC01E057FF4F6491FC01E458FF4FF7
:100700000491002329F1CA01820F931F805E9E4F3E
:10071000FC01F080772351F0733009F43FC0A0F55D
:10072000713009F441C0723009F442C0E02FF0E0AA
:10073000EE0FFF1FEE58FF4F859194917FB7F8940D
:10074000FC010081F11041C06095602360837FBF90
:100750002E5F3F4F2E30310509F0C4CF209709F4AA
:1007600067CF0E943101882309F462CF0E94000004
:100770005FCF85EB91E00E94C30061CF01E08DCF98
:10078000C12CD12C7601A0CF7730A9F07830C9F0F8
:10079000743061F6809180008F7D03C0809180006D
:1007A0008F7780938000C2CF84B58F7784BDBECF12
:1007B00084B58F7DFBCF8091B0008F778093B000A0
:1007C000B5CF8091B0008F7DF9CF602BBFCFE5EB27
:1007D000F1E01382128288EE93E0A0E0B0E084831F
:1007E0009583A683B78384E091E09183808385EC31
:1007F00090E09587848784EC90E09787868780ECEB
:1008000090E0918B808B81EC90E0938B828B82ECDB
:1008100090E0958B848B86EC90E0978B868B118E85
:10082000128E138E148E08950E941F04A59F900DA2
:10083000B49F900DA49F800D911D11240895A29F37
:10084000B001B39FC001A39F700D811D1124911DA4
:10085000B29F700D811D1124911D0895EE0FFF1F91
:0C0860000590F491E02D0994F894FFCF6E
:10086C000000000067018700B400B4012501C3003B
:10087C00D700020003000400050006000700080072
:10088C000100010001000100010001000000000056
:10089C000100010000000000000000000100010048
:1008AC000000010001000000010001000100010036
:1008BC000100000000000100000001000100000028
:1008CC000000010001000100000001000100000017
:1008DC000100010001000000010001000100010005
:1008EC0001000100010001000000000000000000F8
:1008FC0001000100010001000100010001000100E4
:0C090C00010001000100000001000100DA
:00000001FF
