:100000000C945C000C94F5000C94CE000C947900D8
:100010000C9479000C9479000C9479000C9479007C
:100020000C9479000C9479000C9479000C9479006C
:100030000C9479000C9479000C9479000C9479005C
:100040000C9484000C9479000C9479000C94790041
:100050000C9479000C9479000C9479000C9479003C
:100060000C9479000C947900000000002400270013
:100070002A0000000000250028002B0004040404CE
:100080000404040402020202020203030303030342
:10009000010204081020408001020408102001021F
:1000A00004081020000000080002010000030407FB
:1000B000000000000000000011241FBECFEFD8E0B8
:1000C000DEBFCDBF11E0A0E0B1E0E4E0F4E002C0AB
:1000D00005900D92A430B107D9F721E0A4E0B1E07A
:1000E00001C01D92AE30B207E1F70E941C010C94D2
:1000F00000020C94000081E090910401911180E0D5
:1001000080930401089508951F920F920FB60F92E5
:1001100011242F933F938F939F93AF93BF9380911D
:100120000A0190910B01A0910C01B0910D01309149
:10013000090123E0230F2D3758F50196A11DB11DAC
:100140002093090180930A0190930B01A0930C0165
:10015000B0930D018091050190910601A0910701D6
:10016000B09108010196A11DB11D809305019093E6
:100170000601A0930701B0930801BF91AF919F9131
:100180008F913F912F910F900FBE0F901F90189558
:1001900026E8230F0296A11DB11DD2CF1F920F9208
:1001A0000FB60F9211242F933F934F935F936F934A
:1001B0007F938F939F93AF93BF93EF93FF93E091C0
:1001C0000201F09103010995FF91EF91BF91AF9169
:1001D0009F918F917F916F915F914F913F912F915F
:1001E0000F900FBE0F901F9018951F920F920FB691
:1001F0000F9211242F933F934F935F936F937F93AD
:100200008F939F93AF93BF93EF93FF93E091000180
:10021000F09101010995FF91EF91BF91AF919F91ED
:100220008F917F916F915F914F913F912F910F909F
:100230000FBE0F901F901895789484B5826084BD8E
:1002400084B5816084BD85B5826085BD85B58160DA
:1002500085BD80916E00816080936E001092810058
:100260008091810082608093810080918100816013
:1002700080938100809180008160809380008091D4
:10028000B10084608093B1008091B0008160809360
:10029000B00080917A00846080937A0080917A0027
:1002A000826080937A0080917A00816080937A00E6
:1002B00080917A00806880937A001092C100CDE925
:1002C000D0E0FE01249109E810E0F8018491882330
:1002D00099F090E0880F991FFC01E859FF4FA59114
:1002E000B491FC01EE58FF4F859194918FB7F8942B
:1002F0009C91292B2C938FBFE2E9F0E02491EEE74B
:10030000F0E084918823C9F090E0880F991FFC01E8
:10031000E859FF4FA591B491FC01EE58FF4F45916C
:1003200054919FB7F8943C91822F809583238C93AE
:10033000DA01EC912E2B2C939FBF8BE790E09093EA
:10034000010180930001809169008C7F816080931E
:100350006900E89A21EBE22E20E0F22E30E0C32E75
:1003600030E0D32EF7019491FE018491F80134918D
:100370003323E1F020910401992339F0933031F1D6
:10038000D8F4913049F1923059F1E32FF0E0EE0FBB
:10039000FF1FEE58FF4FA591B4919FB7F89421111C
:1003A0002CC02C91809582238C939FBFC114D104C3
:1003B000C9F20E940000D6CF9730A9F09830C9F05A
:1003C000943019F7909180009F7D03C09091800038
:1003D0009F7790938000D9CF94B59F7794BDD5CF68
:1003E00094B59F7DFBCF9091B0009F779093B00024
:1003F000CCCF9091B0009F7DF9CF2C91822BD4CFA0
:04040000F894FFCF9E
:0404040083008300EE
:00000001FF
