:100000000C945C000C9479000C9479000C947900A9
:100010000C9479000C9479000C9479000C9479007C
:100020000C9479000C9479000C9479000C9479006C
:100030000C9479000C9479000C9479000C9479005C
:100040000C94A0000C9479000C9479000C94790025
:100050000C9479000C9479000C9479000C9479003C
:100060000C9479000C947900000000002400270013
:100070002A0000000000250028002B0004040404CE
:100080000404040402020202020203030303030342
:10009000010204081020408001020408102001021F
:1000A00004081020000000080002010000030407FB
:1000B000000000000000000011241FBECFEFD8E0B8
:1000C000DEBFCDBF11E0A0E0B1E0E0EEF3E002C0A2
:1000D00005900D92A031B107D9F721E0A0E1B1E080
:1000E00001C01D92A931B207E1F70E94EA000C9409
:1000F000EE010C9400003FB7F894809115019091A7
:100100001601A0911701B091180126B5A89B05C052
:100110002F3F19F00196A11DB11D3FBFBA2FA92F86
:10012000982F8827BC01CD01620F711D811D911D83
:1001300042E0660F771F881F991F4A95D1F70895EF
:100140001F920F920FB60F9211242F933F938F930C
:100150009F93AF93BF938091110190911201A09151
:100160001301B09114013091100123E0230F2D37BA
:1001700058F50196A11DB11D209310018093110126
:1001800090931201A0931301B09314018091150173
:1001900090911601A0911701B09118010196A11D2F
:1001A000B11D8093150190931601A0931701B09390
:1001B0001801BF91AF919F918F913F912F910F9017
:1001C0000FBE0F901F90189526E8230F0296A11DD1
:1001D000B11DD2CF789484B5826084BD84B581602E
:1001E00084BD85B5826085BD85B5816085BD809102
:1001F0006E00816080936E0010928100809181007A
:100200008260809381008091810081608093810071
:10021000809180008160809380008091B100846033
:100220008093B1008091B00081608093B000809194
:100230007A00846080937A0080917A008260809353
:100240007A0080917A00816080937A0080917A00B0
:10025000806880937A001092C10020E131E0A0E034
:10026000B1E08D919D919927FC01E057FF4F44919A
:1002700084589F4FFC018491882399F090E0880F67
:10028000991FFC01E859FF4FC591D491FC01EE582C
:10029000FF4F859194918FB7F894E881E42BE88320
:1002A0008FBF2A173B07E9F600E010E0D0E0C0E07E
:1002B000A0E0B1E030E020E08D919D919927FC0114
:1002C000EC55FF4F5491FC01E057FF4F4491FC0166
:1002D000E458FF4FE491EE2329F1552359F05330B0
:1002E00009F462C008F055C0513009F463C05230BF
:1002F00009F464C0F0E0EE0FFF1FEE58FF4F859148
:1003000094915FB7F894BE01022E02C0759567956F
:100310000A94E2F7FC0160FD5EC0608140954623CF
:1003200040835FBF2F5F3F4F2830310509F0C4CFB6
:100330000E947B004B015C0184EFC82EDD24D39426
:10034000E12CF12C0E947B00681979098A099B092C
:10035000683E734081059105A8F3F1E0CF1AD108FA
:10036000E108F10828EE820E23E0921EA11CB11CC8
:10037000C114D104E104F10429F72196C536D10551
:1003800009F096CF0115110509F490CF0E940000E5
:100390008DCF5730B1F05830D1F0543009F0AACF9A
:1003A000809180008F7D03C0809180008F77809343
:1003B0008000A0CF84B58F7784BD9CCF84B58F7D1E
:1003C000FBCF8091B0008F778093B00093CF809166
:1003D000B0008F7DF9CF6081462BA2CFF894FFCF7C
:1003E00002000300040005000600070008000900E1
:00000001FF
