:020000040000FA
:100000000C9462000C948A000C948A000C948A0070
:100010000C948A000C948A000C948A000C948A0038
:100020000C948A000C948A000C948A000C948A0028
:100030000C948A000C948A000C948A000C948A0018
:100040000C9403030C948A000C9473030C944D03DA
:100050000C948A000C948A000C948A000C948A00F8
:100060000C948A000C948A000000000024002700F1
:100070002A000000000023002600290000000000E4
:10008000250028002B0004040404040404040202D4
:100090000202020203030303030301020408102007
:1000A0004080010204081020010204081020000012
:1000B0000008000201000003040700000000000027
:1000C00000001A0511241FBECFEFD8E0DEBFCDBF60
:1000D00022E0A4EBB1E001C01D92A036B207E1F727
:1000E00011E0A0E0B1E0E8EBFFE002C005900D9266
:1000F000A43BB107D9F710E0C2E6D0E004C02197D5
:10010000FE010E94E205C136D107C9F70E94A5038E
:100110000C94DA070C940000833081F028F48130CD
:1001200099F08230A9F008958730A9F08830C9F09D
:100130008430B1F4809180008F7D03C08091800075
:100140008F7780938000089584B58F7784BD08955C
:1001500084B58F7DFBCF8091B0008F778093B00006
:1001600008958091B0008F7DF9CF1F93CF93DF93D7
:10017000282F30E0F901E255FF4F8491F901E6564E
:10018000FF4FD491F901EA57FF4FC491CC23A9F056
:10019000162F81110E948C00EC2FF0E0EE0FFF1F54
:1001A000E458FF4FA591B4918FB7F894EC911111D9
:1001B00008C0D095DE23DC938FBFDF91CF911F91D4
:1001C0000895DE2BF8CF3FB7F8948091B701909156
:1001D000B801A091B901B091BA0126B5A89B05C09C
:1001E0002F3F19F00196A11DB11D3FBFBA2FA92FB6
:1001F000982F8827BC01CD01620F711D811D911DB3
:1002000042E0660F771F881F991F4A95D1F708951E
:100210008F929F92AF92BF92CF92DF92EF92FF9216
:100220004B015C010E94E3006B017C010E94E30032
:100230006C197D098E099F09683E734081059105FF
:10024000A8F321E0821A9108A108B10888EEC80E2F
:1002500083E0D81EE11CF11C81149104A104B104B7
:1002600029F7FF90EF90DF90CF90BF90AF909F90D5
:100270008F900895AF92BF92CF92DF92EF92FF924C
:100280000F931F93CF93DF936C017B018B01040FBE
:10029000151FEB015E01AE18BF08C017D10759F05A
:1002A0006991D601ED91FC910190F081E02DC6019C
:1002B0000995892B79F7C501DF91CF911F910F9196
:1002C000FF90EF90DF90CF90BF90AF900895FC012A
:1002D000538D448D252F30E0842F90E0821B930BAB
:1002E000541710F0CF96089501970895FC01918D51
:1002F000828D981761F0A28DAE0FBF2FB11D5D9654
:100300008C91928D9F5F9F73928F90E008958FEFF5
:100310009FEF08952FB7F8948091BB019091BC0195
:10032000A091BD01B091BE012FBF8093C7019093F2
:10033000C801A093C901B093CA018FEB91E00E945C
:10034000760197FF26C02FB7F8948091BB0190915A
:10035000BC01A091BD01B091BE012FBF4091C7016A
:100360005091C8016091C9017091CA01841B950B1D
:10037000A60BB70B4091C3015091C4016091C50118
:100380007091C60184179507A607B707B0F28FEFE3
:100390009FEF0895FC01918D828D981731F0828D29
:1003A000E80FF11D858D90E008958FEF9FEF089580
:1003B000FC01918D228D892F90E0805C9F4F821BE4
:1003C00091098F73992708958FEB91E00E94D801CE
:1003D00021E0892B09F420E0822F089580E090E04D
:1003E000892B29F00E94E40181110C9400000895EA
:1003F000FC01A48DA80FB92FB11DA35ABF4F2C919A
:10040000848D90E001968F739927848FA689B78990
:100410002C93A089B1898C91837080648C93938D87
:10042000848D981306C00288F389E02D80818F7D2A
:1004300080830895EF92FF920F931F93CF93DF93E2
:10044000EC0181E0888F9B8D8C8D98131AC0E88910
:10045000F989808185FF15C09FB7F894EE89FF89DF
:100460006083E889F98980818370806480839FBF7D
:1004700081E090E0DF91CF911F910F91FF90EF907D
:100480000895F62E0B8D10E00F5F1F4F0F7311278D
:10049000E02E8C8D8E110CC00FB607FCFACFE889C8
:1004A000F989808185FFF5CFCE010E94F801F1CF57
:1004B000EB8DEC0FFD2FF11DE35AFF4FF0829FB73C
:1004C000F8940B8FEA89FB8980818062CFCFCF932C
:1004D000DF93EC01888D8823B9F0AA89BB89E8896C
:1004E000F9898C9185FD03C0808186FD0DC00FB612
:1004F00007FCF7CF8C9185FFF2CF808185FFEDCF90
:10050000CE010E94F801E9CFDF91CF910895AF921B
:10051000BF92CF92DF92EF92FF920F931F93CF93F0
:10052000DF936AE070E00E94BA056C0104EA11E012
:100530008EE0869F7001879FF00C11245801D0E057
:10054000C0E0F5018081F2E0AF0EB11CFE01EE0DBE
:10055000FF1DEA5FFE4F60810E94B5002296CE30FB
:10056000D10579F768EE73E080E090E00E94080121
:100570008EE08C9D70018D9DF00C1124D0E0C0E0C8
:10058000F80180810E5F1F4FFE01EE0DFF1DEA5F37
:10059000FE4F60810E94B5002296CE30D10581F7D2
:1005A000DF91CF911F910F91FF90EF90DF90CF904F
:1005B000BF90AF9008950F931F93CF93DF93EC01FB
:1005C00088819981009759F02A813B812617370746
:1005D00030F081E0DF91CF911F910F9108958B0151
:1005E0006F5F7F4F0E940D07009759F099838883B2
:1005F0001B830A832C813D81232B59F7FC01108238
:10060000E8CF80E0E7CF1F920F920FB60F92112430
:100610002F933F938F939F93AF93BF938091BB0191
:100620009091BC01A091BD01B091BE013091B60185
:1006300023E0230F2D3758F50196A11DB11D2093FE
:10064000B6018093BB019093BC01A093BD01B09310
:10065000BE018091B7019091B801A091B901B0910C
:10066000BA010196A11DB11D8093B7019093B80105
:10067000A093B901B093BA01BF91AF919F918F91AF
:100680003F912F910F900FBE0F901F90189526E865
:10069000230F0296A11DB11DD2CF1F920F920FB64C
:1006A0000F9211242F933F934F935F936F937F93F8
:1006B0008F939F93AF93BF93EF93FF938FEB91E053
:1006C0000E94F801FF91EF91BF91AF919F918F919F
:1006D0007F916F915F914F913F912F910F900FBE3E
:1006E0000F901F9018951F920F920FB60F92112422
:1006F0002F938F939F93EF93FF93E091CF01F0910E
:10070000D0018081E091D501F091D60182FD1BC01E
:1007100090818091D8018F5F8F732091D9018217CA
:1007200041F0E091D801F0E0E154FE4F958F8093C5
:10073000D801FF91EF919F918F912F910F900FBE54
:100740000F901F9018958081F4CFCF93DF93CDB792
:10075000DEB728970FB6F894DEBF0FBECDBF7894F2
:1007600084B5826084BD84B5816084BD85B58260B6
:1007700085BD85B5816085BD80916E008160809367
:100780006E001092810080918100826080938100D0
:1007900080918100816080938100809180008160E0
:1007A000809380008091B10084608093B10080913B
:1007B000B00081608093B00080917A008460809363
:1007C0007A0080917A00826080937A0080917A002A
:1007D000816080937A0080917A00806880937A00AB
:1007E0001092C100E091CF01F091D00182E08083AE
:1007F000E091CB01F091CC011082E091CD01F0911C
:10080000CE018FEC80831092D701E091D301F0915B
:10081000D40186E08083E091D101F091D201808102
:1008200080618083E091D101F091D2018081886064
:100830008083E091D101F091D20180818068808332
:10084000E091D101F091D20180818F7D8083A4EA73
:10085000B1E08D919D919927FC01E656FF4F2491BF
:100860008A579F4FFC0184918823A1F090E0880F64
:10087000991FFC01E859FF4F45915491FC01E45840
:10088000FF4F859194918FB7F894FA019081922B44
:1008900090838FBFF1E0A23BBF07D9F603EA10E0D7
:1008A000F80124914FE8E42E40E0F42EF701849102
:1008B0008823C9F090E0880F991FFC01E859FF4F89
:1008C000A591B491FC01E458FF4F459154913FB775
:1008D000F8949C91822F809598239C93FA019081A3
:1008E000892380833FBF97EBC92E90E0D92E20E06B
:1008F000A22E20E0B22EF6018491F8019490F70127
:100900008490882039F181110E948C00E82DF0E05C
:10091000EE0FFF1FEE58FF4FA591B4918C919822D6
:10092000C9F08091B4019091B5010196843691058A
:100930000CF054C09093B5018093B4018091B40140
:100940009091B5010E94870264EF71E080E090E031
:100950000E9408018FEB91E00E94D8011816190639
:100960000CF058C01A8219821C821B821E821D82C2
:1009700070E060E0CE0101960E94DB0229813A819D
:10098000811131C02115310519F0C9010E94840679
:100990001A8219821E821D821C821B820E948A0179
:1009A00097FD29C08F8318868D809E80FFEF8F1A58
:1009B0009F0AB401CE0101960E94DB02882371F3E5
:1009C00029813A818D819E81BE01695F7F4F820FAF
:1009D000931F0E94D3079E828D82E0CF1092B501B3
:1009E0001092B401ABCF1E821D8262EB71E0C9018F
:1009F0000E94D307D3CF89819A810097B9F00E94D2
:100A00004705CB010E94870289819A81009711F0E6
:100A10000E948406A114B10409F46DCF0E94E40180
:100A2000882309F468CF0E94000065CF60E070E081
:100A3000CB01E7CFEFEBF1E01382128288EE93E077
:100A4000A0E0B0E084839583A683B78386E991E034
:100A50009183808385EC90E09587848784EC90E097
:100A60009787868780EC90E0918B808B81EC90E07B
:100A7000938B828B82EC90E0958B848B86EC90E05C
:100A8000978B868B118E128E138E148E08951F9362
:100A9000FC0199278827BC01E89411911032E9F3F1
:100AA000193010F01E30C8F31B3251F01D3249F4DA
:100AB000689406C00E946E05610F711D811D911D15
:100AC000119110531A30B0F33EF4909580957095C3
:100AD00061957F4F8F4F9F4F1F910895592F482F3A
:100AE000372F262F660F771F881F991F660F771FD6
:100AF000881F991F620F731F841F951F660F771F32
:100B0000881F991F08952F923F924F925F926F9284
:100B10007F928F929F92AF92BF92CF92DF92EF928D
:100B2000FF920F931F93CF93DF93CDB7DEB7CA1B0E
:100B3000DB0B0FB6F894DEBF0FBECDBF09942A8839
:100B4000398848885F846E847D848C849B84AA84E1
:100B5000B984C884DF80EE80FD800C811B81AA816E
:100B6000B981CE0FD11D0FB6F894DEBF0FBECDBF39
:100B7000ED01089597FB072E16F4009407D077FD3A
:100B800009D00E94CE0507FC05D03EF490958195D2
:100B90009F4F0895709561957F4F0895AA1BBB1BC9
:100BA00051E107C0AA1FBB1FA617B70710F0A61B6D
:100BB000B70B881F991F5A95A9F780959095BC018E
:100BC000CD010895EE0FFF1F0590F491E02D0994DB
:100BD0000F931F93CF93DF938230910510F482E03F
:100BE00090E0E0915E02F0915F0230E020E0B0E042
:100BF000A0E0309799F42115310509F44AC0281B6B
:100C0000390B24303105D8F58A819B816115710536
:100C100089F1FB0193838283FE0111C040815181E0
:100C20000281138148175907E0F04817590799F4D2
:100C3000109761F012960C93129713961C933296AC
:100C4000CF01DF91CF911F910F91089500935E0224
:100C500010935F02F4CF2115310551F0421753076D
:100C600038F0A901DB019A01BD01DF01F801C1CF14
:100C7000EF01F9CF90935F0280935E02CDCFFE012A
:100C8000E20FF31F81939193225031093983288316
:100C9000D7CF20915C0230915D02232B41F420914B
:100CA00002013091030130935D0220935C02209198
:100CB0000001309101012115310541F42DB73EB7F6
:100CC0004091040150910501241B350BE0915C0219
:100CD000F0915D02E217F307A0F42E1B3F0B2817DB
:100CE000390778F0AC014E5F5F4F2417350748F0A5
:100CF0004E0F5F1F50935D0240935C02819391936E
:100D00009FCFF0E0E0E09CCFCF93DF930097E9F036
:100D1000FC01329713821282A0915E02B0915F02B1
:100D2000ED0130E020E01097A1F420813181820FA5
:100D3000931F20915C0230915D022817390709F05A
:100D400061C0F0935D02E0935C02DF91CF91089562
:100D5000EA01CE17DF07E8F54A815B819E01411564
:100D60005105B1F7E901FB83EA8349915991C40F19
:100D7000D51FEC17FD0761F4808191810296840FE5
:100D8000951FE90199838883828193819B838A835C
:100D9000F0E0E0E012968D919C9113970097B9F5E1
:100DA0002D913C911197CD010296820F931F2091B6
:100DB0005C0230915D022817390739F6309751F5FA
:100DC00010925F0210925E02B0935D02A0935C02EB
:100DD000BCCFD383C28340815181840F951FC81734
:100DE000D90761F44E5F5F4F88819981480F591F81
:100DF000518340838A819B819383828321153105AE
:100E000009F0B0CFF0935F02E0935E029ECFFD0148
:100E1000DC01C0CF13821282D7CFB0E0A0E0E3E1C3
:100E2000F7E00C9485058C01009751F4CB010E94EA
:100E3000E8058C01C801CDB7DEB7E0E10C94A1054F
:100E4000FC01E60FF71F9C0122503109E217F3075E
:100E500008F49DC0D901CD91DC911197C617D70731
:100E600098F0C530D10530F3CE0104978617970767
:100E700008F3C61BD70B2297C193D1936D937C9334
:100E8000CF010E948406D6CF5B01AC1ABD0A4C018B
:100E90008C0E9D1EA0915E02B0915F02512C412CE0
:100EA000F12CE12C109731F580915C0290915D025C
:100EB0008815990509F05CC04616570608F058C019
:100EC0008091000190910101009741F48DB79EB788
:100ED0004091040150910501841B950BE817F90717
:100EE00008F055C0F0935D02E0935C02F901718354
:100EF0006083A0CF8D919C91119712966C90129760
:100F000013967C901397A815B90559F56C0142E02A
:100F1000C40ED11CCA14DB0420F1AC014A195B09D0
:100F2000DA011296159780F06282738251834083B2
:100F3000D9016D937C93E114F10471F0D7011396FC
:100F4000FC93EE93129776CF22968C0F9D1FF9019A
:100F500091838083F301EFCFF0935F02E0935E0211
:100F600069CF4816590608F42C017D01D3019ACFA8
:100F7000CB010E94E8057C01009749F0AE01B80161
:100F80000E94CA07C8010E948406870153CF10E05F
:100F900000E050CFFB01DC0102C001900D924150F6
:100FA0005040D8F70895FB01DC0101900D9200201C
:100FB000E1F70895F894FFCF00006002800001007F
:100FC000010001000100010001000000000001001B
:100FD000010000000000000000000100010000000E
:100FE00001000100000001000100010001000100FA
:100FF00000000000010000000100010000000000EE
:1010000001000100010000000100010000000100DA
:1010100001000100000001000100010001000100C9
:1010200001000100010000000000000000000100BC
:1010300001000100010001000100010001000100A8
:1010400001000100000001000100000000001A0280
:101050003A0167016702D8017601CA010200030064
:0C10600004000500060007000800000066
:107E0000112484B714BE81FFF0D085E080938100F7
:107E100082E08093C00088E18093C10086E0809377
:107E2000C20080E18093C4008EE0C9D0259A86E02C
:107E300020E33CEF91E0309385002093840096BBD3
:107E4000B09BFECF1D9AA8958150A9F7CC24DD24C4
:107E500088248394B5E0AB2EA1E19A2EF3E0BF2EE7
:107E6000A2D0813461F49FD0082FAFD0023811F036
:107E7000013811F484E001C083E08DD089C08234E0
:107E800011F484E103C0853419F485E0A6D080C0E4
:107E9000853579F488D0E82EFF2485D0082F10E0AE
:107EA000102F00270E291F29000F111F8ED06801E7
:107EB0006FC0863521F484E090D080E0DECF843638
:107EC00009F040C070D06FD0082F6DD080E0C81688
:107ED00080E7D80618F4F601B7BEE895C0E0D1E017
:107EE00062D089930C17E1F7F0E0CF16F0E7DF06D8
:107EF00018F0F601B7BEE89568D007B600FCFDCFD4
:107F0000A601A0E0B1E02C9130E011968C91119780
:107F100090E0982F8827822B932B1296FA010C0160
:107F200087BEE89511244E5F5F4FF1E0A038BF0790
:107F300051F7F601A7BEE89507B600FCFDCF97BE46
:107F4000E89526C08437B1F42ED02DD0F82E2BD052
:107F50003CD0F601EF2C8F010F5F1F4F84911BD097
:107F6000EA94F801C1F70894C11CD11CFA94CF0C13
:107F7000D11C0EC0853739F428D08EE10CD085E9AC
:107F80000AD08FE07ACF813511F488E018D01DD067
:107F900080E101D065CF982F8091C00085FFFCCF94
:107FA0009093C60008958091C00087FFFCCF809118
:107FB000C00084FD01C0A8958091C6000895E0E648
:107FC000F0E098E1908380830895EDDF803219F02E
:107FD00088E0F5DFFFCF84E1DECF1F93182FE3DFCA
:107FE0001150E9F7F2DF1F91089580E0E8DFEE27F6
:047FF000FF270994CA
:027FFE00040479
:00000001FF
